:020000040800F2
:10000000A812002099010008271400084D110008CB
:100010002514000829020008E91800080000000063
:1000200000000000000000000000000001010008C6
:100030002B020008000000004501000869140008B8
:10004000B3010008B3010008B3010008B3010008C0
:10005000B3010008B3010008B3010008B3010008B0
:10006000B3010008B3010008B3010008B3010008A0
:10007000B3010008B3010008B3010008B301000890
:10008000B3010008B3010008B3010008B301000880
:10009000B3010008B3010008B3010008B301000870
:1000A000B3010008B3010008B3010008B301000860
:1000B000B3010008B30100082D150008B3010008C2
:1000C000B3010008B3010008B3010008B301000840
:1000D000B3010008B3010008B3010008B301000830
:1000E000B3010008B3010008B3010008DFF80CD029
:1000F00000F088F80048004709190008A8120020FD
:10010000224B19680868B0E8F00F80F30988BFF344
:100110006F8F4FF0000080F311884EF00D0E704786
:100120000000000006480068006880F3088862B696
:1001300061B6BFF34F8FBFF36F8F00DF00BF00BF0B
:1001400008ED00E0EFF30980BFF36F8F0F4B1A68E3
:1001500020E9F00F106008B54FF0500080F31188CF
:10016000BFF34F8FBFF36F8F01F03EFF4FF00000E2
:1001700080F31188BDE8084019680868B0E8F00FFE
:1001800080F30988BFF36F8F704700BF180000200D
:10019000EFF3058070470000064880470648004797
:1001A000FEE7FEE7FEE7FEE7FEE7FEE7FEE7FEE727
:1001B000FEE7FEE7E5140008ED00000840EA010351
:1001C0009B0703D009E008C9121F08C0042AFAD20D
:1001D00003E011F8013B00F8013B521EF9D27047D1
:1001E000D2B201E000F8012B491EFBD27047002279
:1001F000F6E710B513460A4604461946FFF7F0FF26
:10020000204610BD064C074D06E0E06840F00103B3
:1002100094E8070098471034AC42F6D3FFF76AFF22
:10022000FC2200081C230008FEE77047704700000E
:100230002DE9F84FDFF890A100220AF1040B1446D3
:1002400001274FF00F090BF1040E00BF0B6807FAEE
:1002500004F52B40AB4274D1DFF870C14E68A6EBB9
:100260000C0866452BD00DDC032E34D005DC36B3EC
:10027000012E19D0022E2FD11BE0112E16D0122ED6
:100280002AD119E0B8F5881F19D006DCB8F5803FEF
:1002900015D0B8F5801F1FD111E0B8F5001F0ED0A2
:1002A000B8F5041F18D10AE0CA6815E0CA68121D23
:1002B00012E0CA6808320FE0CA680C320CE08A68A3
:1002C0002AB1012A4FF0080203D0456104E004225C
:1002D00002E0056100E00022FF2B01D8064601E0A4
:1002E00000F104064FEA840501D9A5F12005D6F8EE
:1002F00000C009FA05F82CEA080C02FA05F54CEAE8
:10030000050CC6F800C04D68ED0057D5304DAE69FC
:1003100046F00106AE61AD6924F0030605F0010563
:1003200000952C4D06EB050CDCF80850A6074FEAAB
:10033000167809FA08F6B543274EB04202D10026D6
:1003400010E03BE0254EB04201D101260AE0244EE8
:10035000B04201D1022605E0224EB04201D103266F
:1003600000E0042606FA08F62E43CCF808604D6833
:10037000DAF80060ED03554601D51E4300E09E43C8
:100380002E604D68DBF80060AD035D4601D51E436D
:1003900000E09E432E604D68DEF80060ED02754679
:1003A00001D51E4300E09E432E604D68AD020E4D08
:1003B0002E6801D51E4300E09E432E60641C102C65
:1003C000FFF444AFBDE8F88F0004014000001110B5
:1003D000001002400000014000080140000C0140F4
:1003E00000100140001401400C040140C2684A4062
:1003F000C26070470AB1016170470904FBE7000061
:1004000001488068704700000800002002488168A9
:10041000027811448160704708000020074810B539
:10042000016841F010010160032000F093F8002002
:1004300000F006F800F03EF8002010BD0020024059
:1004400000B5014687B000221E2000F063F81E2090
:1004500000F054F81348C16941F00401C161C0695A
:1004600005A900F004000690684600F03BF900F092
:1004700059F90D494000B0FBF1F10D480B4A491EF6
:100480000260416040F2E7320021C0E9032181604F
:1004900000F04AFB10B1012007B000BD044800F095
:1004A0005FFBF9E70010024040420F0000080040E7
:1004B000780100200F4808B5816941F00101816190
:1004C000816901F001010091C16941F08051C16170
:1004D000C069002200F0805000900F21901E00F0B3
:1004E00019F80548416821F0E06141F00071416070
:1004F00008BD0000001002400000014000F01F0293
:10050000012191404009800000F1E020C0F8001175
:1005100070470000F0B40E4B1B680C46C3F3022377
:10052000C3F10705042D00D90425191D072901D29F
:10053000002300E0DB1E012606FA05F1491E2140DA
:1005400099409E40761E16403143F0BC00F06CBFCF
:100550000CED00E0064900F0070208684FF6FF03C3
:10056000184040EA0220034A104308607047000028
:100570000CED00E00000FA052DE9F047DFF85481AA
:1005800005460E46D8F8000000F00700B0420CD235
:10059000D8F8001021F007013143C8F80010D8F84E
:1005A000000000F00700B0426FD128684A4C810774
:1005B00012D5400703D5606840F4E0606060287899
:1005C000000703D5606840F4605060606068A96807
:1005D00020F0F000084360602878C00744D06868C5
:1005E000012816D02168022816D0890700294CDA84
:1005F000616821F0030101436160FFF701FF696851
:10060000074641F2883001290ED00229814618D0D0
:1006100026E021688903E9E78901E7E7FFF7F0FEB3
:10062000C11B494501D918E081466068C0F38100CB
:100630000128F3D118E000BFFFF7E2FEC11B4945D6
:100640000BD86068C0F381000228F5D10CE000BF30
:10065000FFF7D6FEC11B494502D90320BDE8F0874C
:10066000606810F00C0FF3D1D8F80010404601F08C
:100670000701B1420BD9016821F007013143016044
:10068000006800F00700B04201D00120E6E72878BA
:10069000400705D56068E96820F4E06008436060C1
:1006A0002878000706D56068296920F4605040EA80
:1006B000C100606000F056F86168084AC1F3031198
:1006C000515CC840064908600020FFF7B9FE0020D1
:1006D000C4E700000020024000100240C4220008CD
:1006E000140000200F2202600C4A536803F0030339
:1006F0004360536803F0F0038360536803F4E063DE
:10070000C36052684FF4E06303EAD2020261044816
:10071000006800F007000860704700000010024009
:10072000002002400448054900684968044AC1F3B2
:100730000221515CC84070471400002000100240A4
:10074000D42200080448054900684968044AC1F3F6
:10075000C221515CC84070471400002000100240C4
:10076000D422000812A185B00FC98DE80F0014A093
:10077000144A006804905168134801F00C03042BDC
:1007800010D0082B0ED1C1F38343C9031DF8030019
:100790000AD5516804AAC1F34041515C0A4A50434A
:1007A000B0FBF1F005B0704708494843FAE7000094
:1007B00002030405060708090A0B0C0D0E0F1010A2
:1007C000010200000010024000127A0000093D0002
:1007D0002DE9F84F04460078B94DC00748D0686845
:1007E000C0F38100012807D06868C0F381000228A7
:1007F00009D16868C00306D52868800338D56068C9
:1008000000286FD034E06068B0F5803F0BD010B1A5
:10081000B0F5A02F11D0286820F480302860286817
:1008200020F4802002E0286840F48030286060686E
:1008300088B1FFF7E5FD064609E0286840F480200E
:100840002860F0E7FFF7DCFD801B642875D8286876
:100850008003F7D50CE0FFF7D3FD064605E000BFA7
:10086000FFF7CEFD801B6428F0D828688003F7D4FA
:100870002078944E80074FF001094FF000083BD5D7
:10088000686810F00C0F07D06868C0F38100022878
:1008900009D16868C00306D42868800714D5206988
:1008A00001281FD110E02069B0B1C6F80090FFF711
:1008B000A7FD074605E000BFFFF7A2FDC01B022809
:1008C000C4D828688007F7D52868616920F0F80047
:1008D00040EAC10028600FE0C6F80080FFF790FDF5
:1008E000074606E0E9E000BFFFF78AFDC01B0228CB
:1008F00023D828688007F7D4207800072CD57248C1
:10090000A169D9B1C0F80090FFF77AFD074604E06D
:10091000FFF776FDC01B02280FD8686A8007F7D55D
:100920006A484FF4FA510068B0FBF1F0009000BF44
:100930000098411E0091FAD20EE080E0C0F80080DD
:10094000FFF75EFD074604E0FFF75AFDC01B0228D3
:1009500075D8686A8007F7D42078400760D5E869C1
:100960000027C00008D4E86940F08050E861E869D9
:10097000012700F08050009055480168C90513D444
:100980000168834641F480710160FFF739FD8246BA
:1009900006E000BFFFF734FDA0EB0A0064284ED844
:1009A000DBF80000C005F5D5E06801280AD008B1E1
:1009B000052813D0286A20F001002862286A20F058
:1009C000040002E0286A40F001002862E06841F279
:1009D000883B98B1FFF714FD82460BE0286A40F08F
:1009E00004002862EEE700BFFFF70AFDA0EB0A0152
:1009F00059455AD8286A8007F6D50CE0FFF700FD64
:100A0000824605E0FFF7FCFCA0EB0A0159454CD8F3
:100A1000286A8007F6D41FB1E86920F08050E861A9
:100A2000E06988B36968C1F38101022945D00228D1
:100A3000C6F8608004D0FFF7E3FC044638E034E0F9
:100A4000FFF7DEFC074604E0FFF7DAFCC01B0228D4
:100A50002BD828688001F7D4206AB0F5803F05D1F3
:100A60006868A16820F4003008436860D4E9080190
:100A70000843696821F4741108436860C6F86090FF
:100A8000FFF7BEFC044606E015E000BFFFF7B8FC28
:100A9000001B022809D828688001F7D50BE000BFA9
:100AA000FFF7AEFC001B022802D90320BDE8F88F37
:100AB00028688001F4D40020F8E70120F6E7000060
:100AC0000010024000004242800442421400002014
:100AD000007000407047704730B590F83C20012A04
:100AE00020D0012280F83C20022380F83D300368AA
:100AF0005C6824F070045C6003685C680D682C43DB
:100B00005C6003689C6824F080049C6003689C68B7
:100B100049680C439C6080F83D20002180F83C101F
:100B2000084630BD022030BD10B5040003D094F853
:100B30003D0010B107E0012010BD002084F83C000A
:100B4000204600F00CF8022084F83D00211D2068AA
:100B500000F0F2FC012084F83D00002010BD704739
:100B60000168CA6842F00102CA600068016841F089
:100B7000010101600020704770472DE9F0410446F3
:100B800090F83C000D4601283BD0012684F83C60DB
:100B9000022084F83D009AB3042A44D02068082A31
:100BA00053D0D5E90027E968036A23F48053036230
:100BB000D0F81CC0036A2CF4407C4CEA07274FF69F
:100BC000FF7C27F470470CEA01313943770323F4A3
:100BD000005307EA02321A43C16102622068C16908
:100BE00021F44061C1612068C169AA6841EA02211B
:100BF000C16184F83D60002084F83C00BDE8F081CC
:100C000001E00220FAE7D5E90012EB68206800F065
:100C10006BFD2068816921F00C0181612068816988
:100C2000AA6811430FE0D5E90012EB68206800F0D4
:100C300087FD2068816921F44061816120688169B4
:100C4000AA6841EA02218161D3E7D5E9002C2F7B14
:100C5000016A21F480710162C169036A21F0030114
:100C600041EA0C0121F0F00C39074FF400774CEA0F
:100C7000116123F4007307EA02221A43C161026280
:100C80002068C16921F00C01C1612068C169AA68AE
:100C90001143ADE710B5040003D094F83D0010B146
:100CA00007E0012010BD002084F83C00204600F041
:100CB0000DF8022084F83D00211D206800F03CFC66
:100CC000012084F83D00002010BD000000B585B073
:100CD0000021009101910291039100680E49884220
:100CE00017D10E48816941F400618161816901F485
:100CF00000610491816941F0040181618069694664
:100D000000F0040004904FF4706000900448FFF776
:100D10008FFA05B000BD0000002C01400010024019
:100D20000008014070B50446006801694FF00005F5
:100D3000C943890715D4C168C943890711D4E91E7D
:100D4000016101202077206880698007204602D059
:100D5000FFF712FF04E000F0C9F8204600F05EF94A
:100D6000257720680169C943490717D4C168C94379
:100D7000490713D46FF00401016102202077206835
:100D8000806910F4407F204602D0FFF7F5FE04E0B2
:100D900000F0ACF8204600F041F9257720680169A1
:100DA000C943090716D4C168C943090712D46FF0B3
:100DB00008010161042020772068C069800720466F
:100DC00002D0FFF7D9FE04E000F090F8204600F0D2
:100DD00025F9257720680169C943C90617D4C16878
:100DE000C943C90613D46FF01001016108202077B0
:100DF0002068C06910F4407F204602D0FFF7BCFE97
:100E000004E000F073F8204600F008F92577206828
:100E10000169C943C90708D1C168C943C90704D1D9
:100E2000891E0161204600F0FBF820680169C94372
:100E3000090609D4C168C943090605D46FF08001C9
:100E400001612046FFF746FE20680169C943490653
:100E500009D4C168C943490605D46FF04001016156
:100E6000204600F0E7F820680169C94389060BD4E1
:100E7000C168C943890607D46FF02001016120468B
:100E8000BDE87040FFF727BE70BD000000B585B01B
:100E90000021009101910291039100680F4988425D
:100EA0001AD10F48816941F0080181618069694662
:100EB00000F008000490332000900220019003907D
:100EC0000848FFF7B5F90848416821F4406141F04E
:100ED000E06141F40061416005B000BD00040040E4
:100EE00000100240000C014000000140704770B546
:100EF000044690F83C000D4601280DD0012684F8E8
:100F00003C60022084F83D0042B1042A18D0082A2F
:100F10002AD00C2A4DD139E0022070BD206800F0A3
:100F200041FB2068816941F0080181612068816985
:100F300021F004018161206881692A69114311E06F
:100F4000206800F057FB2068816941F400618161ED
:100F50002068816921F480618161206881692A6942
:100F600041EA0221816124E0206800F06FFB2068E3
:100F7000C16941F00801C1612068C16921F0040123
:100F8000C1612068C1692A69114311E0206800F03D
:100F900089FB2068C16941F40061C1612068C169B1
:100FA00021F48061C1612068C1692A6941EA022196
:100FB000C16184F83D60002084F83C0070BD10B52C
:100FC000040003D094F83D0010B107E0012010BDEB
:100FD000002084F83C00204600F00CF8022084F841
:100FE0003D00211D206800F0A7FA012084F83D0093
:100FF000002010BD08B500680649884208D106489F
:10100000C16941F00201C161C06900F002000090B5
:1010100008BD0000000400400010024070470000BE
:1010200000680349884201D1FFF7F0B9704700001A
:1010300000080040704770B5040004D094F83900EF
:10104000002510B106E0012070BD84F8385020461C
:1010500000F022F8242084F839002068C16821F4C7
:101060000051C160204600F087FB2068016921F42F
:10107000904101612068416921F02A0141612068A5
:10108000C16841F40051C160E563202084F8390053
:1010900084F83A00002070BD30B585B0002400947B
:1010A000019402940394244D0368244802210322EE
:1010B000AB421AD1C36943F40033C361C36903F47B
:1010C00000330493836943F00403836180691C4DFA
:1010D00000F0040004900420CDE900010392694669
:1010E0002846FFF7A5F808201CE0164DAB4220D19A
:1010F000C36943F48023C361C36903F48023049369
:10110000836943F0080383618069039200F008005B
:1011100004902815CDE900010B4D69462846FFF7DC
:1011200087F8E814CDE90004694628460294FFF7E1
:101130007FF805B030BD00000044004000100240C0
:101140000008014000480040000C0140FEE700009C
:1011500010B58AB014220B496846FFF72FF800211A
:10116000684600F0F6FB084C064914222060143152
:1011700005A8FFF723F8002105A800F0EAFB60604E
:101180000AB010BD9C220008000000202DE9F043A9
:1011900085B0002436480094019402940394816938
:1011A00041F010018161816901F0100104918169B0
:1011B00041F020018161816901F020010491816980
:1011C00041F004018161816901F0040104918169A8
:1011D00041F0080181618069DFF8988000F0080023
:1011E0004FF400470490002239464046FFF702F9C9
:1011F000DFF884904FF47276002231464846FFF7BC
:10120000F9F84FF460400325CDE9000569461B4815
:10121000FFF70EF841F2F300CDE9000569464046BC
:10122000FFF706F80420CDE9000569464846FEF7B9
:10123000FFFF4FF47040CDE9000469464846029430
:10124000FEF7F6FF0125CDE900750227CDE902473B
:1012500069464046FEF7ECFF03970096CDE901543E
:1012600069464846FEF7E4FF05B0BDE8F08300009C
:101270000010024000080140000C01400010014035
:1012800010B586B00024234805940494009401947A
:1012900002941F490394C0E900148460C46004618F
:1012A00044618461FFF7F6FC08B1FEF7BFFF0494C8
:1012B00004A918480594FFF70FFC08B1FEF7B6FF24
:1012C0000120CDE9004002940022694611480394B0
:1012D000FFF753FC08B1FEF7A9FF042269460D4849
:1012E000FFF74BFC08B1FEF7A1FF08226946094849
:1012F000FFF743FC08B1FEF799FF0C226946054849
:10130000FFF73BFC002801D0FEF790FF06B010BDB0
:10131000002C01407800002010B58AB0002407940A
:101320001C2168460894FEF762FF21481F49C0E966
:1013300000148460C46004618461FFF740FE08B15A
:10134000FEF774FF079407A919480894FFF7C4FB38
:1013500008B1FEF76BFF6020CDE900040294002283
:10136000694613480494FFF7C2FD08B1FEF75EFF1B
:10137000042269460E48FFF7BAFD08B1FEF756FF92
:10138000082269460A48FFF7B2FD08B1FEF74EFF92
:101390000C2269460648FFF7AAFD08B1FEF746FF92
:1013A0000348FFF773FD0AB010BD000000040040C1
:1013B000B80000200C4810B50A4901604FF4E13133
:1013C0004160002181600C22C160C0E9041281618A
:1013D000C161FFF730FE002803D0BDE81040FEF7E2
:1013E00025BF10BD00440040F80000200C4810B597
:1013F0000A4901604FF4E1314160002181600C2213
:10140000C160C0E904128161C161FFF714FE0028C8
:1014100003D0BDE81040FEF709BF10BD00480040F2
:1014200038010020FEE770470907090E002806DA98
:1014300000F00F0000F1E02080F8141D704700F16B
:10144000E02080F800147047044C08212046FEF785
:10145000CDFF642000F071FAF7E70000000C0140B6
:10146000012000F06AFAFBE710B5502080F31188E4
:10147000BFF34F8FBFF36F8F00F04AFE18B10449DE
:101480004FF080500860002080F3118810BD0000EC
:1014900004ED00E030B58FB028216846FEF7A7FEC6
:1014A00014210AA8FEF7A3FE01210804CDE90010CB
:1014B0000024029402250491CDE907504FF4E01076
:1014C00009906846FFF784F90F20CDE90A05680204
:1014D000CDE90C4002210AA80E94FFF74DF80FB099
:1014E00030BD00000D48016841F001010160416814
:1014F0000B4A1140416001680A4A114001600168CD
:1015000021F480210160416821F4FE0141604FF423
:101510001F0181600449C003086070470010024049
:101520000000FFF8FFFFF6FE08ED00E00148FFF7BE
:10153000F9BB000078010020F0B50268164B174C8B
:10154000174D4FF08047984205D0B84203D0A042D3
:1015500001D0A84203D122F070064A683243984273
:1015600005D0B84203D0A04201D0A84203D122F452
:101570004074CA68224322F080044A692243026010
:101580008A68C2620A688262984201D1096901636D
:1015900001214161F0BD0000002C01400004004029
:1015A0000008004030B5026A22F001020262026ABD
:1015B0004368846924F073050C682C4322F002050B
:1015C0008A682A430A4DA8420BD122F00805CA684E
:1015D00023F440732A434D6922F004021D438B69B2
:1015E0002B434360846149684163026230BD00005F
:1015F000002C014030B5026A22F010020262026A39
:10160000436884690D6824F4E64444EA05248D683F
:1016100022F0200242EA05120B4DA8420ED1CD68FD
:1016200022F0800242EA05124D6923F4406343EA46
:1016300085038D6922F0400243EA8503436084619B
:1016400049688163026230BD002C014030B5026AF6
:1016500022F480720262036A4268C46923F4007350
:1016600024F073050C682C438D6843EA05230C4D68
:10167000A8420ED1CD6823F4006343EA05234D69E7
:1016800022F4405242EA05128D6923F4806342EA53
:1016900005124260C4614968C163036230BD000045
:1016A000002C014030B5026A22F480520262046AC2
:1016B0004268C3690D6823F4E64343EA05238D6855
:1016C00024F4005444EA0534064DA84204D14D697F
:1016D00022F4804242EA85124260C3614968016493
:1016E000046230BD002C014070B5046A24F001048E
:1016F00004628469056A0F4EB04208D0B0F1804F91
:1017000005D00D4EB04202D00C4EB04203D124F0B1
:101710000304144301E044F001041A0724F0F00428
:1017200044EA126225F00A0301F00A0119438261BA
:10173000016270BD002C0140000400400008004020
:1017400030B5046A24F0100404628469056A24F444
:10175000407444EA022222F470444FF6FF7202EA17
:1017600003322243A02425F0A00304EA0111194307
:101770008261016230BD00002DE9F041044600683D
:101780000169E26821F44051114301612169A068B7
:101790000843616908432168CA6841F20C639A43AF
:1017A0000243CA6020684169A26921F44071114373
:1017B00041614C4920686425322688423CD1FEF7BD
:1017C000C1FF00EBC00101EB001061688900B0FBB4
:1017D000F1F7FEF7B7FF00EBC00101EB0010616805
:1017E000B0468900B0FBF1F0B0FBF5F06FF01801E6
:1017F000484307EB800106EB0110B0FBF5F000F069
:10180000F006FEF79FFF00EBC00101EB00106168DE
:101810008900B0FBF1F0B0FBF5F006EB0016FEF727
:1018200091FF00EBC00101EB001061688900B0FB83
:10183000F1F7FEF787FF3BE0FEF774FF00EBC00116
:1018400001EB001061688900B0FBF1F7FEF76AFF59
:1018500000EBC00101EB00106168B0468900B0FBED
:10186000F1F0B0FBF5F06FF01801484307EB800191
:1018700006EB0110B0FBF5F000F0F006FEF752FFAA
:1018800000EBC00101EB001061688900B0FBF1F0D2
:10189000B0FBF5F006EB0016FEF744FF00EBC001CD
:1018A00001EB001061688900B0FBF1F7FEF73AFF29
:1018B00000EBC00101EB001061688900B0FBF1F0A2
:1018C000B0FBF5F06FF01801484307EB800108EB1F
:1018D0000110B0FBF5F0216800F00F003044886083
:1018E000BDE8F08100380140FEE702E008C8121FA1
:1018F00008C1002AFAD170477047002001E001C1F9
:10190000121F002AFBD17047FEF788FDFFF7C2FDCA
:10191000FFF73CFCFFF74EFDFFF768FDFFF7FCFC0F
:10192000FFF7AEFCFFF714FC00F00EF8FEE70146EF
:101930000020842900D0C81C704710B500B90120D0
:1019400000F0F0FA002010BD10B500F011FB0020EF
:1019500010BD3EB504460D46B0F90800FFF7E7FF9D
:1019600002A9CDE90001208A2B4682B2D4E90010F9
:1019700000F0A2FB012801D000203EBD02983EBD30
:101980002DE9F041184C0F460546E6682068001D19
:1019900000F012FA38B9206890F82C100120884025
:1019A000216981432161681C07D137B12168BDE8F5
:1019B000F0410E48091D00F037BA20683544B542A1
:1019C0004560216805D2A06BBDE8F041091D00F01B
:1019D00013BA606B091D00F00FFAA06A854200D2AD
:1019E000A562BDE8F08100001800002094020020EC
:1019F0002DE9F041054600F023FA2E4CA068401C6A
:101A0000A06020682C4F10B1606940B32DE02560C4
:101A1000A068012829D1002606EB860007EB80008C
:101A200000F0DCF9761C072EF6D323488C3000F04A
:101A3000D5F92148A03000F0D1F91F48B43000F0AA
:101A4000CDF91D48C83000F0C9F91B48DC3000F062
:101A5000C5F919488C3060631430A06305E0206834
:101A6000E96AC06A884200D82560606A401C6062EA
:101A7000E96A0120226988401043206101EB81005E
:101A800007EB8000291D00F0CFF900F0F9F960693B
:101A900000280CD02068E96AC06A884207D207494A
:101AA0004FF080500860BFF34F8FBFF36F8FBDE8DA
:101AB000F081000018000020B801002004ED00E0D3
:101AC00070B5114E114C17E000F086FA3068B8B1CD
:101AD00000F082FB00F0B4F9F068C568281D00F042
:101AE0006BF9A068401EA0606068401E606000F056
:101AF000C7F9284600F00CF860680028E4D170BDF2
:101B000000F06AFBF8E700008002002018000020C7
:101B100010B50446006B00F0C7F92046BDE8104040
:101B200000F0C2B910484FF44061420706D0C01D12
:101B30000D4920F00700411AC1F540610B4A00230E
:101B40000144C2E900030839103A21F0070111608D
:101B50004B600B600B1AC0E9001393604FF000401C
:101B60005360D06070470000A8020020640000208D
:101B7000074C4FF08056074DFFF7A2FF2068012861
:101B8000FAD92E60BFF34F8FBFF36F8FF4E70000D9
:101B9000B801002004ED00E02DE9F0479A46DDE9A8
:101BA000098481466FF00303206B03EB820210442B
:101BB000089D20F00706700707D0502080F3118899
:101BC000BFF34F8FBFF36F8FFEE723180A5C83F8D4
:101BD00034200A5C12B1401C1028F6D3002784F888
:101BE0004370072D00D30625E562C4E91157201D77
:101BF00000F0FFF804F1180000F0FBF82461C5F1D3
:101C000007006462A061E76484F850705246494658
:101C1000304600F0BFF82060B8F1000F01D0C8F8DE
:101C20000040BDE8F087000030B5114900E01146E2
:101C30000A688242FBD34B685C18844203D1406837
:101C400018444860084643681C18944209D1084C5F
:101C5000103C2468A24209D052681A4442600A68C3
:101C600012680260814200D0086030BD0460F9E76C
:101C7000640000200648416B096829B1416BC968BE
:101C8000C9684968816270474FF0FF31FAE7000088
:101C90001800002008484068401C4FF0500080F3B6
:101CA000118804D0BFF34F8FBFF36F8FFEE7BFF3F0
:101CB0004F8FBFF36F8FFEE76C0000202DE9F041DE
:101CC0000546002700F088F9314E306808B9FFF763
:101CD00029FFF06805424BD1C5B3083568070ED01F
:101CE00005F00700C0F108000544680707D0502040
:101CF00080F31188BFF34F8FBFF36F8FFEE72DB3D3
:101D00007068854234D82248103001460C6801E0E2
:101D100020460C466168A94202D221680029F7D109
:101D200031688C4224D007682168016060680837F8
:101D3000411B10290FD96019420708D0502080F3A9
:101D40001188BFF34F8FBFF36F8FFEE710E0416044
:101D50006560FFF769FF61687068401A7060B2687B
:101D6000904200D2B060F06801430020C4E9000155
:101D700000F032FA780707D0502080F31188BFF3C3
:101D80004F8FBFF36F8FFEE73846BDE8F08100004C
:101D90005400002010B5031F4FF080741C601B1FFF
:101DA00021F001011960191F024B0B6014394038F2
:101DB0000A6010BD951C0008D0E9013201699A60E3
:101DC000D0E901235A604A68824201D182684A60A0
:101DD000002202610868401E0860704700F1080197
:101DE0004FF0FF32C0E90112C160016100210160C2
:101DF000704700210161704730B50B685A1C02D052
:101E000000F1080202E0026904E0224654682568F5
:101E10009D42FAD953684B6099608A6051600861AD
:101E20000168491C016030BD42684A6093688B605C
:101E300093685960916008610168491C01607047AE
:101E4000502080F31188BFF34F8FBFF36F8F0A4983
:101E50004868401C486001280CD10848006810F010
:101E6000FF0F07D0502080F31188BFF34F8FBFF3CF
:101E70006F8FFEE7704700006C00002004ED00E06B
:101E80000849486828B1401E486001D180F3118894
:101E90007047502080F31188BFF34F8FBFF36F8FCF
:101EA000FEE700006C00002070B5002827D0144D1C
:101EB000A0F108046168E868014207D1502080F36E
:101EC0001188BFF34F8FBFF36F8FFEE722683AB1DF
:101ED000502080F31188BFF34F8FBFF36F8FFEE761
:101EE0008143616000F078F8606869680844686060
:101EF0002046FFF799FEBDE8704000F06DB970BD57
:101F00005400002006484FF47A710068B0FBF1F1EC
:101F10004FF0E020491E4161072101617047000038
:101F20001400002010B5020014D00F48006B38B127
:101F3000502080F31188BFF34F8FBFF36F8FFEE700
:101F400000F04AF800211046FFF71AFD00F044F9AE
:101F5000002807D105494FF080500860BFF34F8F2C
:101F6000BFF36F8F10BD00001800002004ED00E0EB
:101F70001CB515480024CDE900402346802213A15A
:101F8000144800F099F8012809D0401C1AD15020BB
:101F900080F31188BFF34F8FBFF36F8FFEE75020A0
:101FA00080F31188BFF34F8FBFF36F8F06484FF058
:101FB000FF312C38816201214161C460BDE81C40C1
:101FC00000F040B81CBD00004400002049444C45CE
:101FD00000000000711B00080248016B491C0163EE
:101FE00070470000180000201448016B11B1012156
:101FF000C16170470021C1610169B1FA81F1C1F18C
:102000001F0101EB81020E4951F822306BB101EB47
:10201000820101F108034A6852684A609A4201D17C
:1020200052684A60D16801607047502080F311887F
:10203000BFF34F8FBFF36F8FFEE700001800002043
:10204000B80100201CB5194908780190FF200870DC
:1020500008788DF800009DF80000154A00F0500047
:1020600010700720906005E09DF800305B008DF84F
:102070000030401E9DF800301B06F5D4000200F42D
:10208000E0609060019808700A48016841F47001AE
:102090000160016841F070410160FFF733FF0020EB
:1020A0005060FEF73FF800201CBD000000E400E097
:1020B0006C00002020ED00E02DE9FF5F8346DDE9A4
:1020C0000E87994616468A469000FFF7F7FD0500F1
:1020D0001AD05420FFF7F2FD040012D0256300212E
:1020E000CDE90241CDE900874B463246514658467C
:1020F000FFF752FD2046FFF77BFC012004B0BDE84E
:10210000F09F2846FFF7D0FE4FF0FF30F6E70000C3
:102110002DE9F0412E4C0027206B40B1A069401CF6
:10212000A061E06900B101273846BDE8F081E668AA
:10213000761CE66013D1606B006838B1502080F3E4
:102140001188BFF34F8FBFF36F8FFEE7606BA16BFA
:102150006163A063206A401C2062FFF78BFDA06AC8
:10216000DFF87080864209D3606B006880B1606BD5
:10217000C068C568686886420DD2A0622068C06ADF
:1021800000EB800158F821000128CAD90127C8E7CF
:102190004FF0FF30F1E7281DFFF70EFEA86A18B1D7
:1021A00005F11800FFF708FEE86A01212269814065
:1021B0001143216100EB800108EB8100291DFFF72D
:1021C00033FEE86A2168C96A8842CDD30127CBE78C
:1021D00018000020B80100202DE9F0472C4D002404
:1021E0002746286B38B1FFF72BFE286B401E28636B
:1021F000286B40B146E0502080F31188BFF34F8F29
:10220000BFF36F8FFEE7A968224E0120D1B3A6F17C
:10221000B40980463068E8B1F068C46804F1180079
:10222000FFF7CAFD201DFFF7C7FDE06A2A6908FA1B
:1022300000F11143296100EB800109EB8100211DB0
:10224000FFF7F2FDE06A2968C96A8842E2D3C5F85F
:102250001C80DFE70CB1FFF70DFDAC6944B14646C9
:10226000FFF756FF00B1EE61641EF9D10020A861AE
:10227000E86938B10849012738070860BFF34F8F74
:10228000BFF36F8FFFF7FCFD3846BDE8F087000015
:10229000180000206C02002004ED00E0EC22000891
:1022A00049140008FDFF000000000000800000004D
:1022B000DC2200086114000800000000000000009B
:1022C0008000000000000000000000000102030484
:1022D0000607080900000000010203045461736B43
:1022E0005F53656E645F574C000000005461736B70
:1022F0005F4C45445F535953000000001C23000805
:102300000000002078000000EA180008942300086C
:102310007800002030120000FA18000800000000C9
:10232000000000000100000010000000000000009C
:1023300000A24A04000000000000000000000000AD
:10234000000000000000000000000000000000008D
:10235000000000000000000000000000000000007D
:10236000000000000000000000000000000000006D
:10237000000000000000000000000000000000005D
:10238000000000000000000000000000AAAAAAAAA5
:042390000000000049
:04000005080000ED02
:00000001FF
