:020000040800F2
:10000000F809002031030008C7010008C9010008F1
:10001000CB010008CD010008CF010008000000005E
:10002000000000000000000000000000D1010008F6
:10003000D301000800000000D5010008D701000826
:100040004B0300084B0300084B0300084B03000858
:100050004B0300084B0300084B0300084B03000848
:100060004B0300084B0300084B0300084B03000838
:100070004B030008632400084B0300087F1D0008A1
:10008000BF2000084B0300084B0300084B03000887
:100090004B0300084B0300084B0300084B03000808
:1000A0004B0300084B0300084B0300084B030008F8
:1000B0004B0300084B030008AF1B00084B0300086C
:1000C0004B0300084B0300084B0300084B030008D8
:1000D0004B0300084B0300084B0300084B030008C8
:1000E0004B0300084B0300084B03000800F002F824
:1000F00000F05AF80AA090E8000C82448344AAF168
:100100000107DA4501D100F04FF8AFF2090EBAE865
:100110000F0013F0010F18BFFB1A43F0010318473B
:10012000BC380000DC3800000A444FF0000C10F826
:10013000013B13F0070408BF10F8014B1D1108BF65
:1001400010F8015B641E05D010F8016B641E01F805
:10015000016BF9D113F0080F1EBF10F8014BAD1C55
:100160000C1B09D16D1E58BF01F801CBFAD505E073
:1001700014F8016B01F8016B6D1EF9D59142D6D3CD
:10018000704700000023002400250026103A28BFF5
:1001900078C1FBD8520728BF30C148BF0B607047F9
:1001A0001FB51FBD10B510BD02F01EFD1146FFF7B3
:1001B000F7FF02F073FC02F03CFD03B4FFF7F2FF1F
:1001C00003BC02F03DFD7047FEE7FEE7FEE7FEE7F9
:1001D00070477047704770470CB500224C4800923A
:1001E0000192016841F4803101604FF4A06301681D
:1001F00001F4003101910099491C0091019911B954
:1002000000999942F3D10168890333D50121019105
:1002100040490A6842F010020A600A6822F00302AC
:100220000A600A6842F002020A604168416041685F
:100230004160416841F480614160416821F47C1172
:100240004160416841F4E8114160016841F080710A
:10025000016001688901FCD5416821F0030141601A
:10026000416841F0020141604168C1F38101022906
:10027000FAD10CBD01920CBD254810B5016841F0C2
:10028000010101604168244A114041600168234A2C
:1002900011400160016821F480210160416821F46E
:1002A000FE0141604FF41F018160FFF795FF1C497B
:1002B0004FF00060086010BD154A10B55068194B2A
:1002C00010F00C01184803D0042901D0082901D0EE
:1002D000036012E05168536801F470114FF002049A
:1002E00013F4803F04EB914102D053689B0301D586
:1002F0000E4B00E00B4B5943016051680A4AC1F3B1
:100300000311121D515C0268CA40026010BD00005A
:1003100000100240002002400000FFF8FFFFF6FE40
:1003200008ED00E000127A000000002000093D0006
:100330000948804709480047FEE7FEE7FEE7FEE779
:10034000FEE7FEE7FEE7FEE7FEE7FEE704480549B5
:10035000054A064B7047000079020008ED000008CE
:10036000F8030020F8090020F8050020F805002017
:1003700010B56FF0040000F08CF8204820490068A8
:10038000B0FBF1F01F49C0B200EB40020870C2EBB5
:10039000C0104FF6FF7202EAC000488010BD194934
:1003A000097848434FF0E021486100238B610869D8
:1003B00040F0010008610869C20701D0C003FAD506
:1003C000086920F0010008618B6170470D49498878
:1003D00048434FF0E021486100238B61086940F0F9
:1003E000010008610869C20701D0C003FAD5086995
:1003F00020F0010008618B617047000000000020C0
:1004000000127A0014000020284908432849086097
:10041000704730B50F23C27801780125F2B1244A24
:10042000126801F1E02102F4E062C2F5E062120A12
:10043000C2F10404D3404278A24084781C401443A3
:10044000220181F80024007800F01F018D4040094E
:10045000800000F1E020C0F8005130BD01F01F0025
:1004600085404809800000F1E020C0F8805130BD8F
:10047000104A114001430E48001F016070470C4AAA
:10048000121D0029116801D0014300E08143116071
:1004900070474FF0E0210428086903D020F00400E1
:1004A0000861704740F00400FAE700000000FA0518
:1004B0000CED00E080FFFF1F8F4910B5884206D188
:1004C0000121042000F049FA002104203BE08B497F
:1004D000884206D10121082000F03FFA00210820BF
:1004E00031E08749884206D10121102000F035FA19
:1004F0000021102027E08349884206D101212020D5
:1005000000F02BFA002120201DE07F49884206D10F
:100510000121402000F021FA0021402013E07B4916
:10052000884206D10121802000F017FA00218020A6
:1005300009E0774988420AD184150121204600F05C
:100540000CFA00212046BDE8104000F006BA10BDAC
:1005500010B50121084600F000FA0021BDE8104066
:10056000012000F0FAB9F0B5CC78002204F00F03B6
:10057000E40601D58C7823430C784FF00F0C14F06F
:10058000FF0F4FF0010E1BD005680E880EFA02F423
:100590002640A64210D196000CFA06F725EA070776
:1005A00003FA06F5CE783D43282E02D0482E02D01D
:1005B00002E0446100E00461521C082AE5D30560B2
:1005C0000A88FF2A1CD94468002202F108060EFAA4
:1005D00006F50E882E40AE420ED196000CFA06F7B4
:1005E000BC4303FA06F7CE783C43282E00D1456180
:1005F000CE78482E00D10561521C082AE5D344600C
:10060000F0BD4FF6FF710180022181700421C1709D
:1006100070470246002092680A4200D001207047CD
:10062000806880B2704702460020D2680A4200D03B
:1006300001207047C06880B2704701617047416116
:1006400070470AB10161704741617047C1607047EE
:1006500041F4803282618161826181698069704781
:100660002C4B10B51A684FF68074224042EA0010F5
:100670000843186010BD2849C8617047F0B5254C83
:10068000002801DAE36900E06368450D2E0185B2B8
:10069000C0F30157B540C0F30342032F05D0C60293
:1006A0000AD503269640B34307E023F070626368DF
:1006B00023F07063636002E0AB4343F0706201B10A
:1006C0002A43002801DAE261F0BD6260F0BD10B596
:1006D0008A0721F003040F49120F21440F238C686D
:1006E00093409C438C608B68904003438B6010BDAB
:1006F0000949C1F8DC00704700080140000C0140C6
:10070000001001400014014000180140001C01408D
:10071000002001400000014000002042A54801687F
:1007200041F0010101604168A34A11404160016844
:10073000A24A11400160016821F4802101604168F2
:1007400021F4FE0141604FF41F0181607047994917
:100750000A6822F480320A600A6822F480220A6061
:10076000B0F5803F07D0B0F5802F03D1086840F482
:10077000A02008607047086840F48030F9E703461D
:10078000002059098B4A01290AD002290AD0516A4E
:1007900003F01F02012393400B4200D00120704759
:1007A0001168F5E7116AF3E718B500204FF4A0646B
:1007B00000903120FFF7E3FF0099491C0091A1420E
:1007C00001D00028F5D03120FFF7D9FF002800D054
:1007D000012018BD774A116821F0F80141EAC000F4
:1007E00010607047764908607047724B5A6808433A
:1007F00022F47C12104358607047714908667047B4
:100800006C4A516821F00301014351607047694807
:10081000406800F00C007047664A516821F0F00112
:10082000014351607047634A516821F4E06101431C
:10083000516070475F4A516821F4605141EAC0003D
:10084000506070475B4A0029517A01D0014300E0B3
:100850008143517270475A49C1F8D8007047554AD0
:10086000516821F4404101435160704751490022D1
:1008700081F8202081F82020012802D0042802D10C
:10088000052081F8200070474E49086070474949AB
:100890000A6A02430A6270474A494439086070474D
:1008A00030B5444A5168484B11F00C0103D004297B
:1008B00001D0082901D0036012E05168536801F4A7
:1008C00070114FF0020413F4803F04EB914102D009
:1008D00053689B0301D53D4B00E03B4B59430160FE
:1008E00051680F2303EA1111394B5C5C0168E14048
:1008F00041605468072505EA14241C5D21FA04F4BC
:100900008460546805EAD4241B5DD940C1605268F4
:10091000032303EA92322E4B1B1F9A5CB1FBF2F1C8
:10092000016130BD234A0029516901D0014300E033
:100930008143516170471F4A0029916901D00143E9
:1009400000E08143916170471A4A0029D16901D0C2
:10095000014300E08143D1617047164A0029D16804
:1009600001D0014300E08143D1607047114A002962
:10097000116901D0014300E08143116170471149C1
:100980004039086070470E49C86470470949C8710A
:1009900070470848416A41F0807141627047054ADA
:1009A0000146002092680A4200D0012070470149A8
:1009B00088727047001002400000FFF8FFFFF6FE4B
:1009C000000042428004424200127A0000093D00C9
:1009D0001C000020F94910B5884202D10121C4143D
:1009E00086E0B0F1804F09D0F54988420DD1012150
:1009F0000220FFF7BBFF0021022064E0012108462E
:100A0000FFF7B4FF002101205DE0EE49884206D1E6
:100A100001210420FFF7AAFF0021042053E0EA4946
:100A2000884206D101210820FFF7A0FF00210820FD
:100A300049E0E649884206D101211020FFF796FFE0
:100A4000002110203FE0E249884206D10121202008
:100A5000FFF78CFF0021202035E0DE49884202D1DB
:100A60000121441444E0DC49884202D10121CC0434
:100A70003EE0DA49884202D101210C0538E0D8492C
:100A8000884202D101214C0532E0D649884206D184
:100A900001214020FFF76AFF0021402013E0D249E6
:100AA000884206D101218020FFF760FF00218020CD
:100AB00009E0CE4988420AD1841501212046FFF77A
:100AC00055FF00212046BDE81040FFF74FBFC84941
:100AD000884202D101210C040AE0C649884202D1B1
:100AE00001214C0404E0C44988420AD101218C044C
:100AF0002046FFF732FF2046BDE810400021FFF7F7
:100B00002CBF10BD30B50288AC4CB24DA0420DD008
:100B1000A8420BD0B0F1804F08D0A94B984205D025
:100B2000A84B984202D0A84B984203D122F0700300
:100B30004A881A43A54B984206D0A54B984203D049
:100B400022F44073CA881A4302808A8882850A8800
:100B50000285A0420AD0A84208D0A54A904205D0FA
:100B6000A44A904202D0A44A904201D1097A018657
:100B70000121818230BD30B5028C22F00102028455
:100B8000028C8388048B22F0020224F073050C8807
:100B90002C430D8915434A882A43884DA8420BD01F
:100BA0008C4DA84208D0924DA84205D0914DA84244
:100BB00002D0914DA8420DD122F008054A8923F4B4
:100BC00040732A4322F004058A882A438D891D43F5
:100BD000CB892B4383800483C9888186028430BDFE
:100BE00070B5028C22F010020284028C8388048B80
:100BF0000D8824F4E6464FF6FF7404EA05253543D4
:100C00000E8922F0200204EA061616434A8804EAF6
:100C100002123243694EB04202D06E4EB04215D13C
:100C200022F080064A8923F4406304EA0212324328
:100C300022F040068A8804EA021232438E8904EACE
:100C400086061E43CB8904EA8303334383800583EE
:100C5000C9880187028470BD70B5028C22F480724D
:100C60000284028C8388848B0D8824F073042543CE
:100C70000E894FF6FF7422F4007204EA062616432A
:100C80004A8804EA022232434C4EB04202D0514E0E
:100C9000B04215D122F400664A8923F4405304EA95
:100CA0000222324322F480668A8804EA0222324316
:100CB0008E8904EA06161E43CB8904EA03133343E4
:100CC00083808583C9888187028470BD70B5028C5A
:100CD00022F480520284058C8288838B0C8823F452
:100CE000E6464FF6FF7303EA0424344325F4005626
:100CF0000D8903EA053535434E8803EA06362E434F
:100D00002E4DA84202D0334DA84205D122F4804591
:100D10008A8903EA82122A4382808483C988A0F8E0
:100D20004010068470BD828B22F440628283828BE5
:100D30004FF6FF7303EA01210A4382837047828BD7
:100D400022F00C028283828B0A4382837047028BDB
:100D500022F440620283028B4FF6FF7303EA012103
:100D60000A4302837047F0B5048C24F01004048415
:100D7000078B048C4FF6FF7527F4734705EA03339E
:100D80003B4305EA02221A430C4B05EA011698423E
:100D90000ED0104B98420BD0B0F1804F08D0084BCA
:100DA000984205D0074B984202D0074B984225D174
:100DB00024F02001314341F0100124E0002C0140D7
:100DC0000004004000080040000C004000100040FB
:100DD0000014004000340140004C0140005001402C
:100DE0000054014000180040001C0040002000405A
:100DF00000400140004401400048014024F0A003AD
:100E00000B4343F0100102830184F0BD028B22F0FA
:100E10000C020283028B0A430283704770B5048C74
:100E200024F001040484058B048C4FF6FF7606EA57
:100E30000313134325F0F305F84A2B4390420ED0D9
:100E4000F74A90420BD0B0F1804F08D0F54A90425B
:100E500005D0F54A904202D0F44A904202D124F0E3
:100E6000020201E024F00A020A4342F00101038376
:100E7000018470BD2DE9F84F0D4604460888E74F00
:100E8000DFF89CC3DFF89C83DFF89C934988AA882D
:100E90002B894FF0804A48B304282FD04FF6FF76B5
:100EA0000828934632D0208C9E4620F4805020841F
:100EB000A38B208C06EA0132009223F4734306EAE6
:100EC0000B221A4306EA0E331343BC420AD0644590
:100ED00008D0544506D0444504D04C4502D0D34AEE
:100EE000944242D120F40050009940E02046FFF7A0
:100EF00095FFE9882046BDE8F84F87E72046FFF7D1
:100F000032FFE9882046BDE8F84F20E7208C20F426
:100F100080702084B4F81CE0208C06EA031306EAF3
:100F200001222EF0F30E43EA0B0343EA0E03009274
:100F3000BC420AD0644508D0544506D0444504D08C
:100F40004C4502D0B94A944203D120F40070009974
:100F500001E020F42060084340F48070A3832084E3
:100F6000E9882046BDE8F84FE9E620F4024008434E
:100F700040F48050A3832084E9882046BDE8F84FE0
:100F8000D1E62DE9F0410C460026498807460125A7
:100F900001B90226A288012A00D1022520882389CE
:100FA0000028384610D0FFF7DEFEE1883846FFF70C
:100FB000CEFE23892A4631463846FFF72FFFE188C7
:100FC0003846BDE8F04121E7FFF728FFE1883846C1
:100FD000FFF71CFF23892A4631463846FFF7C3FE38
:100FE000E1883846BDE8F041B1E610B50A884B8883
:100FF000CC881A438B8823431A430B891A434B89A5
:1010000089891A430A43A0F8442010BD4FF6FF71A6
:10101000818000210180C1804180017270470021E0
:10102000018041808180C180018141818181C181B4
:10103000704700210180418001228280C1800181AE
:1010400070470021018041808180C1800181418100
:10105000818170470029018802D041F0010101E03F
:1010600021F0010101807047002930F8441F02D0AF
:1010700041F4004101E0C1F30E0101807047002AF4
:10108000828901D00A4300E08A43828170478182CD
:1010900070471143A0F848107047002A828901D098
:1010A0000A4300E08A4382817047018921F00701E9
:1010B00001817047028922F070020A430281704761
:1010C00000B50346FFF7F6FF188940F007001881C6
:1010D00000BD70B516460D46602904464FF001026A
:1010E00031460AD0FFF79AFE29462046FFF7E2FF75
:1010F000208940F00700208170BDFFF734FEF3E740
:1011000030B504894FF6FF7505EA03231343E4B2B3
:101110000B432343038130BD10B50446FFF7F0FFB6
:10112000208940F07700208110BD10B50446FFF7FC
:10113000E7FF208940F48040208110BD0185828234
:101140007047028822F070020A430280704770B52F
:101150000589048B068C25F007050D434FF6FC41ED
:101160000C4040F201110C434FF6FF7101EA0311EC
:1011700026F022061143314305810483018470BDAA
:10118000028B22F070020A4302837047028B4FF6F3
:10119000FF7322F4E04203EA012111430183704707
:1011A000828B22F070020A4382837047828B4FF653
:1011B000FF7322F4E04203EA012111438183704767
:1011C0000029018802D041F0800101E021F0800176
:1011D000018070470029818802D041F0040101E0BC
:1011E00021F00401818070470029818802D041F0FC
:1011F000080101E021F00801818070470029818801
:1012000002D041F0010101E021F00101818070472D
:10121000028B22F008020A4302837047002C01402F
:10122000003401400004004000080040000C004071
:10123000028B4FF6FF7322F4006203EA012111438F
:101240000183EAE7828B22F008020A438283E4E703
:10125000828B4FF6FF7322F4006203EA01211143EF
:101260008183DAE7028B22F004020A430283D4E787
:10127000028B4FF6FF7322F4806203EA01211143CF
:101280000183CAE7828B22F004020A438283C4E707
:10129000828B4FF6FF7322F4806203EA012111432F
:1012A0008183BAE7028B22F080020A430283B4E70B
:1012B000028B4FF6FF73C2F30E0203EA01211143C2
:1012C0000183AAE7828B22F080020A438283A4E78B
:1012D000828B4FF6FF73C2F30E0203EA0121114322
:1012E00081839AE7028C22F002020A43028494E787
:1012F000028C22F008020A4302848EE7028C4FF629
:10130000FF7322F0200203EA01111143018484E7F4
:10131000028C4FF6FF7322F0800203EA01111143A1
:1013200001847AE7028C4FF6FF7322F4007203EA1D
:1013300001211143018470E7028C4FF6FF7322F400
:10134000006203EA01211143018466E7028C4FF633
:10135000FF7322F4005203EA0131114301845CE778
:1013600010B50123048C8B409C430484038C8A4079
:101370001343038410BD10B50423048C8B409C439D
:101380000484038C8A401343038410BD30B50124C8
:10139000058C00F118038C40A543058489B1082908
:1013A0000FD0091FC1F34E001844016821F4E04139
:1013B000016001684FF6FF7303EA022211430160E6
:1013C00030BD03EB5100016821F07001016001683C
:1013D000F4E70029018802D041F0020101E021F088
:1013E0000201018019E70029018802D041F00401BF
:1013F00001E021F0040101800FE70029818802D07B
:1014000041F0800101E021F08001818005E7028840
:1014100022F00802028002880A430280FDE68288E8
:1014200022F07002828082880A438280F5E6028977
:1014300022F00702028102890A430281EDE6028955
:1014400022F08002028102890A430281E5E681845A
:10145000E3E68185E1E68186DFE60187DDE68187D7
:10146000DBE6A0F84010D8E6028822F44072028041
:1014700002880A430280D0E6808ECEE6008FCCE65A
:10148000808FCAE6B0F84000C7E6808CC5E6008DC4
:10149000C3E602460020128A0A4200D00120BCE6C0
:1014A000C9430182B9E602460020138A92890B42A1
:1014B00002EA010202D0002A00D00120ADE6C943B1
:1014C0000182AAE6C44910B588420AD101218C03E1
:1014D0002046FFF742FA2046BDE810400021FFF702
:1014E0003CBABE49884202D101214C0410E0BC49FB
:1014F000884202D101218C040AE0BA49884202D113
:101500000121CC0404E0B84988420AD101210C052C
:101510002046FFF72BFA2046BDE810400021FFF7D8
:1015200025BA10BD30B50446008A85B00D464CF68C
:10153000FF710840E98801432182A0894EF6F3112A
:101540000840A9882A8911436A8902431143A1816D
:10155000A08A4FF6FF410840A9890143A18268464D
:10156000FFF79EF99C48844201D1039800E002985D
:10157000A189090400EBC00101EB0010296801D525
:10158000490000E08900B0FBF1F06422B0FBF2F109
:1015900009010B096FF018056B4300EB8300A38969
:1015A0001D044FF0320306D503EBC000B0FBF2F090
:1015B00000F0070005E003EB0010B0FBF2F000F0D4
:1015C0000F000843208105B030BD4FF41651016073
:1015D00000218180C18001810C224281818170477C
:1015E00010B5028A4FF2FF031A400B884C88234340
:1015F0008C88C9880C4323431343038210BD002108
:10160000018041808180C18070470029818902D09A
:1016100041F4005101E021F400518181704710B57F
:10162000C1F3421301F01F040121A140012B07D097
:10163000022B07D01430002A026805D00A4304E0C8
:101640000C30F8E71030F6E78A43026010BD002A3C
:10165000828A01D00A4300E08A4382827047028A6C
:1016600022F00F020282028A0A43028270478289B4
:1016700022F40062828182890A43828170470029B4
:10168000818902D041F0020101E021F00201818153
:101690007047028A22F020020282028A0A430282F2
:1016A00070470029018A02D041F4804101E021F411
:1016B000804101827047C1F30801818070478088B2
:1016C000C0F308007047818941F0010181817047B2
:1016D000028BD2B20283028B42EA0121018370475E
:1016E000028B02F47F420283028B0A43028370471B
:1016F0000029818A02D041F0200101E021F020017F
:10170000818270470029818A02D041F0100101E0F6
:1017100021F01001818270470029818A02D041F0B6
:10172000080101E021F008018182704700298189C8
:1017300002D041F4004101E0C1F30E018181704704
:101740000029818A02D041F4006101E021F40061A6
:1017500081827047828A22F004028282828A0A434E
:10176000828270470029818A02D041F0020101E0A3
:1017700021F00201818270470246002012880A424D
:1017800000D001207047C9430180704770B501F057
:101790001F0501260024C1F3421306FA05F2012BAE
:1017A0000FD0022B0FD0838A4FEA112100881342F9
:1017B00006FA01F600EA060001D000B10124204635
:1017C00070BD8389F0E7038AEEE70A0A01219140A0
:1017D000C9430180704700000038014000440040C8
:1017E00000480040004C00400050004001684FF6A7
:1017F000FE72114001600021016041608160C160A2
:101800006A496A4A0839904203D1486840F00F009B
:1018100006E0664A1432904204D1486840F0F00075
:1018200048607047614A2832904203D1486840F4CA
:101830007060F5E75D4A3C32904203D1486840F45D
:101840007040EDE7594A5032904203D1486840F465
:101850007020E5E7554A6432904203D1486840F46D
:101860007000DDE7514A7832904203D1486840F079
:101870007060D5E74E4A111F904203D1086840F0CE
:101880000F0006E04A4A1432904204D1086840F042
:10189000F00008607047464A2832904203D1086839
:1018A00040F47060F5E7424A3C32904203D1086848
:1018B00040F47040EDE73E4A50329042EAD1086869
:1018C00040F47020E5E730B5026847F6F0739A43BC
:1018D0000C6A8B682343D1E904452C4323438C696C
:1018E0002343CC6923434C6A23438C6A2343134329
:1018F0000360CA6842600A6882604968C16030BD9E
:101900000021016041608160C160016141618161CC
:10191000C16101624162816270470029016802D0A1
:1019200041F0010102E04FF6FE7211400160704784
:10193000002A026801D00A4300E08A43026070472F
:1019400041607047406880B2704702460020D10075
:1019500002D51749083901E01449083909681142CC
:1019600000D001207047C10003D51149091F08604C
:1019700070470E4908394860704702460020D10080
:1019800002D50B49083901E00849083909681142B4
:1019900000D001207047C10003D50549091F086028
:1019A000704702490839486070470000080002404B
:1019B0000804024010B54FF4A060FEF725FDFEF7C5
:1019C000D7FC00F011F900F03DFA00F061FCBDE831
:1019D0001040472142F20F70AFF300802DE9F34F22
:1019E000834689B001210220FEF7AEFF01210520C8
:1019F000FEF7A1FF01210920FEF79DFF4FF04009EE
:101A0000ADF800901825504C8DF8035003268DF842
:101A1000026069462046FEF7A6FD8027ADF80070FB
:101A20008DF803508DF8026069462046FEF79BFD55
:101A30004FF00108ADF80080DFF810A18DF80350D9
:101A40008DF8026069465046FEF78DFD0224ADF820
:101A500000408DF803508DF8026069465046FEF74D
:101A600082FDADF8007010258DF803508DF802400E
:101A700069465046FEF777FDADF800908DF80350AB
:101A80008DF8024069465046FEF76DFD2020ADF806
:101A900000008DF803508DF8024069465046FEF76D
:101AA00062FD0420ADF800008DF803508DF802406F
:101AB00069465046FEF757FD0A98ADF81400002419
:101AC000234DADF818B0ADF81A40ADF8164005A991
:101AD0002846FFF717F86020ADF80400ADF806803F
:101AE000ADF80A40ADF80C4001A92846FFF743F8CD
:101AF00001A92846FFF774F801A92846FFF7ACF8BA
:101B000001A92846FFF7E2F801212846FFF7ACFAC1
:101B100008212846FFF77CFB08212846FFF788FBB1
:101B200008212846FFF78EFB08212846FFF790FB87
:101B300001212846FFF744FB01212846FFF78AFAD6
:101B40000BB0BDE8F08F000000080140000C014020
:101B5000000400407FB501210420FEF7F5FE472078
:101B6000ADF8040040F2E730ADF8000000241C4D51
:101B7000ADF80640ADF8024069462846FEF7C2FFC0
:101B80001E208DF80C008DF80D408DF80E400120C0
:101B90008DF80F0003A8FEF73CFC012211462846F1
:101BA000FFF76DFA01212846FFF754FA7FBD10B503
:101BB0000B4C01212046FFF776FC00280FD00121B5
:101BC0002046FFF77CFC01212046FFF769FC054811
:101BD0000168491C0160BDE8104000F089BD10BDDE
:101BE000000800402C00002070B592B001210420B4
:101BF000FEF7A1FE01218803FEF79DFE01210846A4
:101C0000FEF790FE894D2846FFF75CFC2815ADF8DD
:101C1000400004268DF8436010A98548FEF7A3FC18
:101C20000BA8FFF7D2FC00244FF4E1300B90ADF885
:101C30003040ADF83440ADF83240ADF83660ADF824
:101C400038400BA92846FFF76DFC012240212846A9
:101C5000FFF7FDFC774E3046FFF7C8FD281D0090CA
:101C60007548CDE901040D20CDE903048020CDE9BC
:101C700005042020CDE907404FF44050CDE9090488
:101C800069463046FFF71FFE0F208DF83C0001210A
:101C90008DF83D108DF83E408DF83F100FA8FEF7EF
:101CA000B8FB01213046FFF738FE01220221304601
:101CB000FFF73EFE01212846FFF7A7FC12B070BDDA
:101CC00070B55E490546B1F902400C804880001BA2
:101CD00001F0F6FB5A4920F00040884201DA204624
:101CE00070BD284670BD70B5534C002102200D34E4
:101CF000225C401C11440A28FADBA07AC9B288424F
:101D00003CD14E4DA1782D1DC8092871E27801F013
:101D10007F0142EA0121298000F07DF8FFF7D0FF22
:101D200068802179AD1DC8092871627901F07F01B1
:101D300042EA0121298000F06EF8FFF7C1FF6880B8
:101D4000A179AD1DC8092871E27901F07F0142EA4D
:101D50000121298000F05FF8FFF7B2FF6880217A47
:101D6000AD1DC8092871627A01F07F0142EA0121A4
:101D7000298000F050F8FFF7A3FF688070BD70B5B0
:101D80004FF400342046FFF7F8FD002842D02046EB
:101D9000FFF7E9FD2046FFF7FEFD274801785A29A5
:101DA00002D14078A52806D0234800251A30027BAE
:101DB0005A2A05D006E020490D2201F10D0022E04B
:101DC000A52904D00024015D5A2902D005E00C2584
:101DD00006E001194978A5291AD0641C0D2CF2DB04
:101DE00041191548C5F10D020D3000F06FFE124883
:101DF0002A460D30401B10490D3000F067FE0E4999
:101E00000D2201F11A0000F061FEBDE870406AE7A2
:101E10002546E5E770BD18B1012803D000207047C2
:101E200008B27047484200B27047000000380140D5
:101E300000080140580002405C02002030000020F1
:101E40000080BB4470B592B001210420FEF773FD01
:101E500001214804FEF778FD01210846FEF762FDE6
:101E6000FE4E3046FFF72EFB0820ADF8400004255B
:101E70008DF8435010A9FA48FEF775FB0BA8FFF741
:101E8000A4FBF84800240B90ADF83040E802ADF810
:101E90003200C010ADF83400ADF83650ADF838401F
:101EA0000BA93046FFF73EFB012240213046FFF7E9
:101EB000CEFBED4D2846FFF799FC301D0090EB4816
:101EC000CDE901041920CDE903048020CDE9050402
:101ED0002020CDE907404FF44050CDE90904694680
:101EE0002846FFF7F0FC10208DF83C0002208DF80A
:101EF0003D008DF83E4001208DF83F000FA8FEF711
:101F000088FA01212846FFF708FD01220221284610
:101F1000FFF70EFD01213046FFF777FB12B070BDD1
:101F20002DE9F043D24AD349D06890600968D16066
:101F3000814201D0081A01E00844404200244FF0D9
:101F4000010910610A2802D2C2F8009000E0146072
:101F5000C6481930B0F80110C1F30A08A0F1B90160
:101F600021F8408F8378DD08C37845EA4315C5F32F
:101F70000A074F8005799B0943EA8505437945EABD
:101F80008325C5F30A068E805D08837945EAC3156B
:101F9000C5F30A05CD804FEA131CC3794CEA031C34
:101FA000CCF30A0CA1F808C090F808C0DB0943EA9A
:101FB0004C0C437A4CEA432CCCF30A0CA1F80AC02F
:101FC0004FEA930C837A4CEA831CCCF30A0CA1F8F9
:101FD0000CC090F80BC05B0943EACC03CB8183892A
:101FE000C3F30A030B82437B4FEAD30C837B4CEA97
:101FF000431CCCF30A0CA1F812C090F80FC09B0947
:1020000043EA8C0C037C4CEA832CCCF30A0CA1F839
:1020100014C04FEA530C437C4CEAC31CCCF30A0CAB
:10202000A1F816C04FEA131C837C4CEA031CCCF3C6
:102030000A0CA1F818C090F813C0DB0943EA4C0C55
:10204000037D4CEA432CCCF30A0CA1F81AC04FEAEA
:10205000930C437D4CEA831CCCF30A0CA1F81CC002
:10206000807D5B0943EAC000C88340F2E930403913
:10207000804507D1874205D1292E03D1854201D160
:10208000546001E0C2F804901068012802D1506841
:10209000012807D0002021F81040401C1028FADB4E
:1020A000BDE8F083002001EB4002B2F84030128C12
:1020B0009A1A21F81020401C1028F4DBF0E770B5C4
:1020C0004FF400142046FFF758FC00283CD020466F
:1020D000FFF749FC2046FFF75EFC644908780F28AB
:1020E00001D1C87B30B1614800253230027E0F2A11
:1020F00005D006E05D49192201F119001BE0C97DF8
:10210000F1B10024015D0F291CD0641C192CF9DBEE
:1021100041195648C5F11902193000F0D7FC53484F
:102120002A461930401B5149193000F0CFFC4F4965
:10213000192201F1320000F0C9FCBDE87040EFE661
:102140001825E5E72546E3E770BD70B54FF47A70D2
:10215000FEF73CF9454C0026403CA4F160052068A0
:1021600035F8401F08442060698860680844606052
:10217000A988A0680844A060E988E0680844E06095
:10218000298920690844206169896069084460617F
:10219000A989A0690844A061E989E0690844E0616F
:1021A000298A206A08442062698A606A0844606259
:1021B000A98AA06A0844A062E98AE06A0844E06249
:1021C000298B206B08442063698B606B0844606333
:1021D000A98BA06B0844A063E98BE06B403D0844E9
:1021E000E0630A20FEF7F2F8761C0A2EB7DB2168BE
:1021F0000A20B1FBF0F129846168B1FBF0F1698438
:10220000A168B1FBF0F1A984E168B1FBF0F1E984C8
:102210002169B1FBF0F129856169B1FBF0F16985B4
:10222000A169B1FBF0F1A985E169B1FBF0F1E985A4
:10223000216AB1FBF0F12986616AB1FBF0F1698690
:10224000A16AB1FBF0F1A986E16AB1FBF0F1E98680
:10225000216BB1FBF0F12987616B0DE00044004078
:1022600000080140A08601006C0002402403002009
:102270004C0000202C000020B1FBF0F16987A16B1D
:10228000B1FBF0F1A987E16BB1FBF0F0E88770BD1D
:1022900070B592B001210820FEF74DFB01218804A2
:1022A000FEF752FB01210846FEF73CFB984E3046F4
:1022B000FFF708F9F014ADF8400004258DF84350FD
:1022C00010A99448FEF74FF90BA8FFF77EF90024F8
:1022D0004FF4E1300B90ADF83040ADF83440ADF83C
:1022E0003240ADF83650ADF838400BA93046FFF714
:1022F00019F9012240213046FFF7A9F9864D2846F9
:10230000FFF774FA301D00908448CDE901040920DC
:10231000CDE903048020CDE905042020CDE9074064
:102320004FF44050CDE9090469462846FFF7CBFA3F
:102330000D208DF83C0003208DF83D008DF83E40C7
:1023400001208DF83F000FA8FEF763F80121284611
:10235000FFF7E3FA012202212846FFF7E9FA0121FB
:102360003046FFF752F912B070BD70B50C466C499B
:10237000A16000256B49C4F88C50E160D4E90031BC
:102380005B1E04EB8102994203DA491C61605061D3
:1023900001E050616560002617E004EB8605A16846
:1023A000686901F0B9F901D26869A060E1686869FB
:1023B00001F0B2F801D26869E0606969D4F88C0074
:1023C00000F02CFF761CC4F88C002068B042E4DCDE
:1023D000801E01F075F80546A168D4F88C0001F064
:1023E00007FAE16801F004FA294600F08BFF20614A
:1023F00070BD70B5494D0021022009352A5C401C92
:1024000011440628FADBA879C9B2884228D1688825
:1024100040BA00B201F054F84349FFF7A6FF01F0BB
:1024200033F806B24048001FB0F9024004804680ED
:10243000301B01F045F83D4920F00040884200DBA8
:102440003446364E0A3E7480A88840BA00B201F085
:1024500037F835499031FFF788FF01F015F83080E3
:1024600070BD70B54FF400742046FFF786FA00285F
:102470004CD02046FFF777FA2046FFF78CFA274822
:10248000A0F10A0601785A2902D14078A52806D081
:10249000224800251230027A5A2A0AD00BE056F858
:1024A0000A0FC6F809007068C6F80D00307A70741B
:1024B00027E0A52904D00024015D5A2902D005E0B7
:1024C000082506E001194978A5291DD0641C092CAE
:1024D000F2DB41191148C5F10902093000F0F6FAA2
:1024E0000E482A460930401B0C49093000F0EEFA2C
:1024F000D6F80A00F061D6F80E003062B07C86F89B
:102500002400BDE8704074E72546E2E770BD000096
:1025100000480040000C0140300002407A030020D7
:1025200000C079C400C0794464000020000020424B
:1025300070B51D460346B1F902001446194600F075
:10254000F9F9EE48EE4E5DB1012D21D0022D37D0C4
:10255000032D5FD1B4F91C10002949DD012248E0A8
:10256000B4F91C10002901DD012200E000228021C5
:10257000FEF767F8B4F91C0000F0EBFD21F0004114
:1025800000F0BAFD81B23046BDE87040FEF763BF8F
:10259000B4F91C10002901DD012200E000224021D5
:1025A000FEF74FF8B4F91C0000F0D3FD21F0004114
:1025B00000F0A2FD81B23046BDE87040FEF74DBF8D
:1025C000B4F91C10002901DD012200E000222021C5
:1025D000FEF737F8B4F91C0000F0BBFD21F0004114
:1025E00000F08AFD81B23046BDE87040FEF737BF8B
:1025F00000220421FEF725F8B4F91C0000F0A9FD23
:1026000021F0004100F078FD81B23046BDE8704015
:10261000FEF727BF70BD2DE9F047BA4FB7F90400A8
:10262000404200F04DFFDFF8E082414600F06AFED4
:10263000DFF8D892494600F0A3FF4FF0FF3A514629
:1026400001F07DF900F020FFB14C06462080B7F97B
:10265000000000F035FF414600F054FE494600F00E
:102660008FFF514601F06BF900F00EFF05466080C8
:10267000B7F90600404200F023FF414600F042FE59
:10268000494600F07DFF514601F059F900F0FCFE8B
:10269000A080301A401B00B2002304F114029D49AF
:1026A000FFF746FF2088A18801230844618804F1D0
:1026B00032020844404200B29749FFF739FF2088B0
:1026C000A18802230844618804F15002401A00B234
:1026D0009249FFF72DFFA088218804F16E02401A6D
:1026E0006188BDE8F047401A00B203238C491FE718
:1026F0002DE9F0478B4D8C4F2A46B5F90000DFF8E5
:102700002C82A0F15B01B2F90240894E54291DD2FE
:1027100000F0D6FE8146314601F06AF800F0B4FEC2
:102720002881002C48461EDC3BE000F0ADFEA8806E
:10273000B5F9000000F0C4FE314601F04FF800F09A
:1027400059FB0446B5F90400404271E0811F542949
:1027500001D2288143E000212981AF283DDD002CF2
:102760001DDD00F0ADFE00F045FB394600F008FF2E
:102770000446B5F9000000F0A3FE00F0F9FB414665
:1027800000F0FEFE214600F049FD20F00044B5F9BE
:10279000020000F095FE214601F02AF8C5E700F09E
:1027A0008FFE00F027FB394600F0EAFE0446B5F93B
:1027B000000000F085FE00F0DBFB414600F0E0FE8B
:1027C000214600F02BFD20F00044B5F9020000F096
:1027D00077FE214600F022FDA7E7052830DA00F059
:1027E0006FFE00F007FB394600F0CAFE0446B5F95B
:1027F000000000F065FE00F0BBFB414600F0C0FEAB
:10280000214600F00BFD20F00044B5F9020000F075
:1028100057FE214600F0ECFF00F036FEA880B5F927
:10282000000000F04DFE00F0E5FA0446B5F90400A2
:1028300000F046FE214600F065FD00F025FEE88030
:10284000334C31482061B5F9060000F039FE0146ED
:1028500004F18C02002000F0C2F8A060B5F9080075
:1028600000F02EFE014604F1B202002000F0B7F89D
:10287000E0600546A168206900F0BAFF294600F033
:10288000B7FF00F001FE00B2002304F11402214959
:10289000FFF74EFE2069A16880F0004000F0A8FF1D
:1028A000E16800F0A5FF00F0EFFD00B2012304F1A4
:1028B00032021949FFF73CFEA168206900F0AEFC26
:1028C000E16800F095FF00F0DFFD00B2022304F1A3
:1028D00050021249FFF72CFE2169A06800F088FF22
:1028E000E16800F085FF00F0CFFD04F16E02BDE865
:1028F000F04700B203230A491AE60000000C014029
:1029000000040040840200200000484400401C46AF
:1029100084010020340000203A0000204000002004
:1029200046000020700300200000F041000020421B
:10293000000034432DE9FE43144612680092626899
:102940000192A268029244F62062904202DC524256
:10295000904200DA104642F210756E42A94201DD43
:10296000294602E0B14200DA31462269E26090462F
:10297000081A00F0A5FD074620616069394600F09D
:102980004DFC44496061884202DC4349884200D9D9
:1029900061614146384600F02BFFA061029900F0CA
:1029A000EFFD81466069019900F0EAFD80463846F6
:1029B000009900F0E5FD414600F030FC494600F08A
:1029C0002DFC00F061FD00B2A083A84200DDA583CC
:1029D000B4F91C00B04200DAA683BDE8FE832DE9FD
:1029E000F041054614460E46B2F9200000F068FD9D
:1029F000294600F091FD04D2B4F9200000F060FDFA
:102A00000546B4F91E0000F05BFD294600F084FE87
:102A100004D2B4F91E0000F053FD05462769E760B3
:102A20003146284600F0E4FE0546206160692946EB
:102A300000F0F4FB606106463946284600F0D8FEF7
:102A4000A061A16800F09CFD07466168304600F077
:102A500097FD06462168284600F092FD314600F0B9
:102A6000DDFB394600F0DAFB00F00EFD00B2A0837A
:102A7000B4F92410884200DDA183B4F91C10B4F924
:102A80002200814200DAA083B4F91C00BDE8F041C5
:102A900000F016BD00401C4600401CC6FEF78AFF31
:102AA000FFF753FB4FF47A742046FDF78FFC204666
:102AB000FDF78CFC2046FDF789FC2046FDF786FCDF
:102AC0002046FDF783FCFFF745F8FEE7032A40F2B6
:102AD000308010F0030C00F0158011F8013BBCF1C0
:102AE000020F624498BF11F801CB00F8013B38BFD8
:102AF00011F8013BA2F1040298BF00F801CB38BFE6
:102B000000F8013B11F0030300F03380083AC0F0F5
:102B1000088051F8043B083A51F804CBA0E80810AB
:102B2000F5E7121D5CBF51F8043B40F8043BAFF3DE
:102B30000080D20724BF11F8013B11F801CB48BF38
:102B400011F8012B24BF00F8013B00F801CB48BF6E
:102B500000F8012B704770477047704710B500F0C0
:102B60003BF8006810BD10B5044600F035F804606D
:102B700010BD10B5203AC0F00B80B1E81850203AD3
:102B8000A0E81850B1E81850A0E81850BFF4F5AF0D
:102B90005FEA027C24BFB1E81850A0E8185044BF97
:102BA00018C918C0BDE810405FEA827C24BF51F804
:102BB000043B40F8043B08BF7047D20728BF31F8F8
:102BC000023B48BF11F8012B28BF20F8023B48BF49
:102BD00000F8012B70470000004870479803002060
:102BE00000487047980300207546FFF7F9FFAE468E
:102BF00005006946534620F00700854618B020B509
:102C0000FDF7A4FBBDE820404FF000064FF00007A1
:102C10004FF000084FF0000B21F00701AC46ACE884
:102C2000C009ACE8C009ACE8C009ACE8C0098D46F1
:102C300070470446AFF300802046FDF7BEFA00005F
:102C400001491820ABBEFEE7260002007047410094
:102C5000080218BF04200A0E18BF40F001004FF010
:102C60007F4232EA010108BF40F00200012808BF9C
:102C700005207047012100F062BE0021084600F0E7
:102C800041BB6FF05E01080700F059BE2DE9F04D21
:102C90000D4614464FF07F41B1EB440F9EBF4FF0FD
:102CA000FF312960BDE8F08D4FF0004040EA04217B
:102CB000C4F3C750783810F01F024A4B4FEA601C2B
:102CC000C2F120067B44C4F3C750A0F178004FEA5C
:102CD000601003EB800053F82C3008BFD0E901C628
:102CE00012D0D0F804C093402CFA06F73B43876813
:102CF0000CFA02FC27FA06F8C06807FA02F2F04064
:102D00004CEA080C42EA0006A3FB0132ACFB01C00E
:102D1000A6FB016101EB0C068E4234BF4FF0010CA3
:102D20004FF0000CC1186144BCF1000F02D0814289
:102D300002D903E0814201D2012000E000201044CA
:102D400000F120024FEA92188006CA0C40EA423095
:102D50004F03C5F8008000F0B3FB8246384600F010
:102D6000C7FB6FF0120100F0EAFD0746304600F0A5
:102D7000BFFB6FF0250100F0E2FD83463946504667
:102D800000F04CFA594600F049FA00F500666FF37E
:102D90000B065146304600F02BFD394600F028FD69
:102DA000594600F01BFD104900F0EAFB07460F49A9
:102DB000304600F0E5FB394600F030FA07460C4992
:102DC000304600F0DDFB394600F028FA14F0004FE1
:102DD00008BFBDE8F08DC8F1805180F00040296047
:102DE000BDE8F08DF40C0000DB0FC92F22AAFD29ED
:102DF0000000C92F2DE9F843044602464F486946B2
:102E0000B0EB420F09D94FF0E640B0EB420F94BF50
:102E100000204FF0FF30009030E0494B22F000409E
:102E2000834271D94749204600F0AAFB00F0A6FC76
:102E3000804600F029FB00F0030000904249404624
:102E400000F09EFB05464149404600F099FB0646CE
:102E50003F49404600F094FB07463E49404600F09B
:102E60008FFB214600F0BAFC394600F0C1FC314628
:102E700000F0BEFC294600F0BBFC04462546009C41
:102E8000002C45DB294614F0010F08461CD000F049
:102E900077FB0646304900F073FB304900F09EFC9A
:102EA000314600F06DFB2E4900F0B8F9314600F0D4
:102EB00067FB294600F064FB294600F0AFF914F0E7
:102EC000020F1CD0BDE8F88300F05AFB05462549E7
:102ED00000F056FB244900F0A1F9294600F050FB10
:102EE000224900F09BF9294600F04AFB4FF07E5141
:102EF00000F094F914F0020F08BFBDE8F88380F0E9
:102F00000040BDE8F883FFE71046FFF7BFFEB4E7D7
:102F10006800B0F17F4F3CBF4FF07E50BDE8F883B2
:102F200007D14FF00100FFF71EFEBDE8F843FFF7A1
:102F3000A4BE2846BDE8F843FFF79CBEB61F927EAC
:102F4000490E494683F9223F1A61342C0020A233EE
:102F500000A0FD390000C93F336D4C39DA82083CCE
:102F6000A0AA2ABEB93AB2BACA9F2A3DDDFFFFBE67
:102F70002DE9F8430446024652486946B0EB420F39
:102F800009D94FF0E640B0EB420F94BF00204FF05C
:102F9000FF30009030E04C4B22F00040834271D96A
:102FA0004A49204600F0ECFA00F0E8FB804600F0C9
:102FB0006BFA00F0030000904549404600F0E0FA4B
:102FC00005464449404600F0DBFA06464249404681
:102FD00000F0D6FA07464149404600F0D1FA2146B2
:102FE00000F0FCFB394600F003FC314600F000FC29
:102FF000294600F0FDFB04462546009C002C45DBDD
:10300000294614F0010F08461ED000F0B9FA054613
:10301000334900F0B5FA334900F000F9294600F0D1
:10302000AFFA314900F0FAF8294600F0A9FA4FF05A
:103030007E5100F0F3F814F0020F08BFBDE8F883EA
:1030400080F00040BDE8F88300F09AFA0646274970
:1030500000F096FA264900F0C1FB314600F090FAE4
:10306000244900F0DBF8314600F08AFA294600F0E6
:1030700087FA294600F0D2F814F0020FE0D1BDE83B
:10308000F883FFE71046FFF701FEB4E76800B0F1F0
:103090007F4F09D22846FFF7DAFD042808BFFFF763
:1030A000F0FD2846BDE8F88306D10120FFF75BFD5F
:1030B000BDE8F843FFF7E1BD2846BDE8F843FFF758
:1030C000D9BD0000B61F927E490E494683F9223FC2
:1030D0001A61342C0020A23300A0FD390000C93F42
:1030E000B93AB2BACA9F2A3DDDFFFFBE336D4C39F3
:1030F000DA82083CA0AA2ABE4FEA1153A3F58063E6
:10310000D3F11E03A8BFD3F1200C08DB4FF000421F
:1031100042EAC12252EA505232FA03F070470942A1
:103120000BD4102BC4BF0020704703F5787CBCF192
:10313000FF3F05D04FF0FF3070474FF00000704761
:1031400070B500F01DF800BF499224800020704740
:10315000F0E710F0004248BF4042B0FA80F310FAA6
:1031600003F10AD0C3F11D0303F580634FEA415018
:1031700002EB035202EBD12170474FF00000704781
:103180000EF1020E2EF0030E5EF8046B364205D4EB
:10319000012A43EB030515F5001F12D8012841EB66
:1031A000010C1CF5001F0CD80ED14FEAD17C15F58F
:1031B000001F0CEB4C0C0CF1020C08BF4CEBD37C49
:1031C00004E04FF0080C01E04FEAD37C0CEB4C0517
:1031D00026FA05F606F00706B6F1040C06D20EEB49
:1031E000860CBDE870404CF0010C6047DFE80CF045
:1031F000090B02024FF000414FF00000A1F5002141
:1032000070BD19461046012851EB010418BFD4F5D2
:10321000001484BF002001F0004170BD90EA010F4E
:1032200048BF81F0004100F1EA82421A3CBF801A97
:1032300089184FEAD0524FF07F4C1CEA410FA2EBA5
:10324000D15318BF9CEA026F00F03B804FF0004C56
:103250004CEA00204CEA012121FA03FC10EB0C0C93
:103260001ED202F1FF325FEA1C2040EBC25038BF91
:1032700070471CF07F0F4FEA400C18BFBCF17F4F26
:1032800038BF7047C3F12003994008BF20F0010008
:10329000BCF17F4F38BF7047A0F1C04000F037BA93
:1032A0004FEA3C00000A40EBC25028BF1CF0FF0F61
:1032B0004FEA400CE6D018BFBCF17F4F38BF7047D3
:1032C000EAE79CEA026F05D010EA5C0F08BF00F045
:1032D0000040704710B500F0D4F900BF64FBBE3E5B
:1032E000014800F0FABA00BF0000C07F401058BF8C
:1032F000C0F14040491058BFC1F140418142EFF355
:10330000008070474FF47F0C1CEAD0121EBF1CEAED
:10331000D11392EA0C0F93EA0C0F00F0858090EA2B
:10332000010F48BF42F4807240F4000C41F40000E9
:103330002CF07F4120F07F4000B58142A2EB0302D8
:103340000FF2081CACEB504EC0F100009EF800E0FC
:103350004FEA4E0E00FB0EFC38BF49004FEA2C1C12
:1033600002F5FA020CFB0EF34FEACE1E4FEA112CC7
:103370004FEAC1210EEB635E42EB22420EFB0CFCD6
:103380004FEA1C5300FB03114FEA112C4FEA0131A5
:103390000EFB0CFC4FEADC4C00FB0C11C14228BFB9
:1033A00009184CEB03335DF804EB10EB410143EBE0
:1033B000C250B2F57C0F38BF704729D512F0F00F1C
:1033C0001CBF00F1C04000F00040704700818283C4
:1033D0008485868788898B8C8D8E8F919293959624
:1033E00097999A9C9D9FA0A2A3A5A7A8AAACAEB0AE
:1033F000B2B3B5B7B9BCBEC0C2C5C7C9CCCED1D4B3
:10340000D7D9DCDFE2E6E9ECF0F3F7FAFE000000E2
:103410004FEA400C0CF1807CBCF17E4F28BF704716
:10342000B0F1C04000F073B990EA010F0CEAD1137B
:1034300048BF42F48072624538BF634507D213F437
:103440007F0F16D080EA010000F00040704710B5F1
:1034500000F017F9097EFC3E00F005B880EA010093
:1034600000F00040704780EA010000F0004000F0EA
:103470004EB912F47F0F04BF0248704780EA010082
:1034800000F045B90000C07F41000B0ED3F19E0251
:1034900008D950F400034FEA032323FA02F048BF8F
:1034A0004042704710B500F0ECF800BF499224800C
:1034B000002070476FF0004282EA20007047000051
:1034C00010F0004148BF4042B0FA80F310FA03F216
:1034D000C3F19D030BD051EAC35101EB12205306F7
:1034E00038BF704700F1010008BF20F001007047AD
:1034F000B0FA80F310FA03F2C3F19D030AD0D905A4
:1035000001EB1220530638BF704700F1010008BFDD
:1035100020F001007047000050EA010C00F1138018
:103520001CF5000F58BFBCF5000F01D4884270474E
:1035300007D710F5000F58BF11F5000F15D48842BA
:103540007047894270471CF5000F04D5BCF5000F89
:10355000F7D5814270474FF0807C1CEB400F38BF9D
:103560001CEB410F01D28142704710B500F089F881
:10357000922449004FF000504FF08051FFF7B6BE43
:103580004FF47F0C1CEAD0121EBF1CEAD11392EA42
:103590000C0F93EA0C0F00F0478090EA010F48BF30
:1035A00042F480724FF0004C4CEA00204CEA0121BA
:1035B00002EB0302A0FB0113A2F50002002918BFD1
:1035C00043F001035B0028BF4FEA330342EB224282
:1035D0005FEA132C4CEBC2502EBFBCEB436FB2F52D
:1035E0007C0F70474FEA036CBCF1004F08BF20F01E
:1035F0000100B2F57C0F38BF70470BD582F0FF0297
:1036000012F5803FC8BF704700F1C040D8BF00F03E
:103610000040704700F5000C5FEA4C0C48BF704753
:10362000B0F1C04000F073B890EA010F0CEAD1137A
:1036300048BF42F48072624538BF634504D280EAD5
:10364000010000F00040704710B500F01AF800BF0C
:103650008900013E00F007B800F009B85FEA410CAC
:103660005FEA1C6C08D080EA010000F050B85FEA05
:10367000400C5FEA1C6CF6D14FF00040A0F58000D2
:1036800070470EF1020E2EF0030E5EF8044B24423A
:1036900004D44FEA4102B2F17F4F11D84FEA400300
:1036A000B3F17F4F0CD80ED14FEAD07CB2F17F4FEF
:1036B0000CEB4C0C0CF1020C08BF4CEBD17C04E081
:1036C0004FF0080C01E04FEAD17C0CEB4C0324FADC
:1036D00003F404F00704B4F1040C06D20EEB840CDE
:1036E000BDE810404CF0010C6047DFE80CF0070823
:1036F00002024FF00040A0F5800010BD08464200D5
:1037000018BFD2F1807288BF00F0004010BDFF21C9
:1037100041EAD050C005704751EA000C00F1138017
:103720001CF5000F58BFBCF5000F01D48142704753
:1037300007D711F5000F58BF10F5000F15D48142BF
:103740007047894270471CF5000F04D5BCF5000F87
:10375000F7D5884270474FF0807C1CEB410F38BF93
:103760001CEB400F01D28842704780EA010081EAD9
:10377000000180EA0100FFF7F8BE00005FEA400C9C
:103780005FEA1C6CBCF17F0314D4D3F1170240F341
:103790001C804FF0010C0CFA02FCACF10103034059
:1037A000B3EB5C0220EA030008BF10EA0C0F88BFED
:1037B00060447047B3F1FF3F28BF5FEA002C00F080
:1037C000004088BF40F07E507047BCF1FF0FB8BF8B
:1037D000704710B5FFF755FF40DBB6BE80F00040E4
:1037E00090EA010F7FF521AD81F0004100F007B8AC
:1037F00090EA010F48BF81F000413FF516AD421A33
:1038000004D882F00042A0EB020011444FEAD052EB
:103810004FF07F4C1CEA410FA2EBD15318BF9CEA3A
:10382000026F4AD04FF0004C4CEA00204CEA0121D4
:1038300021FA03FCB0EB0C0C0FD412F0FE0F36D0C3
:103840005FEA4C001DD5001240EBC25038BF7047F4
:103850001CF03F0F18BF70470BE0A2F101025FEAB6
:103860001C2040EBC25038BF70471CF07F0F18BFC0
:103870007047C3F12003994014BF401E20F001009F
:10388000704780084FEA122308BF7047B0FA80FCE7
:10389000A2EB0C02CCF1280C60FA0CF093EA122F88
:1038A00004BF00EBC25070474FEAC3707047130A61
:1038B0005FEADC1008BF7047F6E79CEA026F04D0AD
:1038C00010EA5C0F08BF0020704710B5FFF7D9FE63
:1038D00040DFF63E81F0004070470CF00F03092BEB
:1038E00008BF082000F051800A2B0BD0082B18BF0E
:1038F000704708BF1CF0400F0AD04FF000004FF097
:10390000000170471CF0400F18BF4FF00040704797
:103910001CF0100F08D020F0704300F07F4242EA04
:10392000D3014FEA4370704700F0604021F07F42BE
:1039300042EA000201F07F4040EA727070474FF0A7
:10394000FF0212EAD0521CBF92F0FF038B42C2BFAB
:10395000D14200EBC1507047002A0AD0002B0BD097
:10396000002900F00040A4BF40F0FE4040F40000F9
:10397000704700F00040704743024FF00B0C18BF37
:103980004CF0806C7FF4ACAC70471CF4801F11D0FD
:103990001CF4E02F03D06FEACC31490070474FF0A0
:1039A0004050EFF3008222F0704242EA000282F3BC
:1039B000008870474FF000007047000000000000D2
:1039C0006E83F9A22915444ED15727FCC0DD34F58A
:1039D000999562DB4190433CAB6351FEFC39000892
:1039E000000000205C02000028010008483A00089E
:1039F0005C0200209C070000840100081184A24A98
:103A000004400901020304060708096D02040608C0
:103A100014A9180134028F1E02A30A08093248E1D2
:103A2000FA3E6F12833A1E0B1A355E1E0C19A24520
:103A3000F61E21031AF04114A6FF5A0D1C24FADCCD
:083A400005263CB0FF502600F2
:04000005080000ED02
:00000001FF
